:020000040000fa
:080000000002040000000000f2
:020000040000fa
:04000800840300006d
:020000040000fa
:04000c008403000069
:020000040000fa
:040010008403000065
:020000040000fa
:040014008403000061
:020000040000fa
:04001800840300005d
:020000040000fa
:04001c008403000059
:020000040000fa
:040020008403000055
:020000040000fa
:040024008403000051
:020000040000fa
:04002800840300004d
:020000040000fa
:04002c008403000049
:020000040000fa
:040030008403000045
:020000040000fa
:040034008403000041
:020000040000fa
:04003800840300003d
:020000040000fa
:04003c008403000039
:020000040000fa
:040040008403000035
:020000040000fa
:040044006c03000049
:020000040000fa
:040048006003000051
:020000040000fa
:04004c008403000029
:020000040000fa
:040050008403000025
:020000040000fa
:040054008403000021
:020000040000fa
:04005800840300001d
:020000040000fa
:04005c00cc020000d2
:020000040000fa
:040060008403000015
:020000040000fa
:040064008403000011
:020000040000fa
:04006800840300000d
:020000040000fa
:04006c008403000009
:020000040000fa
:040070008403000005
:020000040000fa
:040074004003000045
:020000040000fa
:0400780084030000fd
:020000040000fa
:04007c0084030000f9
:020000040000fa
:0400800084030000f5
:020000040000fa
:0400840084030000f1
:020000040000fa
:0400880084030000ed
:020000040000fa
:04008c0084030000e9
:020000040000fa
:0400900084030000e5
:020000040000fa
:0400940084030000e1
:020000040000fa
:0400980084030000dd
:020000040000fa
:04009c0084030000d9
:020000040000fa
:0400a00074030000e5
:020000040000fa
:0400a4007c030000d9
:020000040000fa
:0400a80084030000cd
:020000040000fa
:0400ac0084030000c9
:020000040000fa
:0400b00084030000c5
:020000040000fa
:0400b40084030000c1
:020000040000fa
:0400b80084030000bd
:020000040000fa
:0400bc0084030000b9
:020000040000fa
:0400c00084030000b5
:020000040000fa
:0400c40084030000b1
:020000040000fa
:0400c80084030000ad
:020000040000fa
:0400cc0084030000a9
:020000040000fa
:0400d00084030000a5
:020000040000fa
:0400d40084030000a1
:020000040000fa
:0400d800840300009d
:020000040000fa
:0400dc008403000099
:020000040000fa
:0400e0008403000095
:020000040000fa
:0400e4008403000091
:020000040000fa
:0400e800840300008d
:020000040000fa
:0400ec008403000089
:020000040000fa
:0400f0008403000085
:020000040000fa
:0400f4008403000081
:020000040000fa
:0400f800840300007d
:020000040000fa
:0400fc008403000079
:020000040000fa
:040100008403000074
:020000040000fa
:040104008403000070
:020000040000fa
:04010800840300006c
:020000040000fa
:04010c008403000068
:020000040000fa
:040110008403000064
:020000040000fa
:040114008403000060
:020000040000fa
:04011800840300005c
:020000040000fa
:04011c008403000058
:020000040000fa
:040120008403000054
:020000040000fa
:040124008403000050
:020000040000fa
:04012800840300004c
:020000040000fa
:04012c008403000048
:020000040000fa
:040130008403000044
:020000040000fa
:040134008403000040
:020000040000fa
:04013800840300003c
:020000040000fa
:04013c008403000038
:020000040000fa
:040140008403000034
:020000040000fa
:040144008403000030
:020000040000fa
:04014800840300002c
:020000040000fa
:04014c008403000028
:020000040000fa
:040150008403000024
:020000040000fa
:040154008403000020
:020000040000fa
:04015800840300001c
:020000040000fa
:04015c008403000018
:020000040000fa
:04020800840300006b
:020000040000fa
:04020c008403000067
:020000040000fa
:040210008403000063
:020000040000fa
:04021400840300005f
:020000040000fa
:04021800840300005b
:020000040000fa
:04021c008403000057
:020000040000fa
:040220008403000053
:020000040000fa
:04022400840300004f
:020000040000fa
:04022800840300004b
:020000040000fa
:04022c008403000047
:020000040000fa
:040230008403000043
:020000040000fa
:04023400840300003f
:020000040000fa
:04023800840300003b
:020000040000fa
:04023c008403000037
:020000040000fa
:040240008403000033
:020000040000fa
:040244006c03000047
:020000040000fa
:04024800600300004f
:020000040000fa
:04024c008403000027
:020000040000fa
:040250008403000023
:020000040000fa
:04025400840300001f
:020000040000fa
:04025800840300001b
:020000040000fa
:04025c00cc020000d0
:020000040000fa
:040260008403000013
:020000040000fa
:04026400840300000f
:020000040000fa
:04026800840300000b
:020000040000fa
:04026c008403000007
:020000040000fa
:040270008403000003
:020000040000fa
:040274004003000043
:020000040000fa
:0402780084030000fb
:020000040000fa
:04027c0084030000f7
:020000040000fa
:0402800084030000f3
:020000040000fa
:0402840084030000ef
:020000040000fa
:0402880084030000eb
:020000040000fa
:04028c0084030000e7
:020000040000fa
:0402900084030000e3
:020000040000fa
:0402940084030000df
:020000040000fa
:0402980084030000db
:020000040000fa
:04029c0084030000d7
:020000040000fa
:0402a00074030000e3
:020000040000fa
:0402a4007c030000d7
:020000040000fa
:0402a80084030000cb
:020000040000fa
:0402ac0084030000c7
:020000040000fa
:0402b00084030000c3
:020000040000fa
:0402b40084030000bf
:020000040000fa
:0402b80084030000bb
:020000040000fa
:0402bc0084030000b7
:020000040000fa
:0402c00084030000b3
:020000040000fa
:0402c40084030000af
:020000040000fa
:0402c80084030000ab
:020000040000fa
:0402cc0084030000a7
:020000040000fa
:0402d00084030000a3
:020000040000fa
:0402d400840300009f
:020000040000fa
:0402d800840300009b
:020000040000fa
:0402dc008403000097
:020000040000fa
:0402e0008403000093
:020000040000fa
:0402e400840300008f
:020000040000fa
:0402e800840300008b
:020000040000fa
:0402ec008403000087
:020000040000fa
:0402f0008403000083
:020000040000fa
:0402f400840300007f
:020000040000fa
:0402f800840300007b
:020000040000fa
:0402fc008403000077
:020000040000fa
:040300008403000072
:020000040000fa
:04030400840300006e
:020000040000fa
:04030800840300006a
:020000040000fa
:04030c008403000066
:020000040000fa
:040310008403000062
:020000040000fa
:04031400840300005e
:020000040000fa
:04031800840300005a
:020000040000fa
:04031c008403000056
:020000040000fa
:040320008403000052
:020000040000fa
:04032400840300004e
:020000040000fa
:04032800840300004a
:020000040000fa
:04032c008403000046
:020000040000fa
:040330008403000042
:020000040000fa
:04033400840300003e
:020000040000fa
:04033800840300003a
:020000040000fa
:04033c008403000036
:020000040000fa
:040340008403000032
:020000040000fa
:04034400840300002e
:020000040000fa
:04034800840300002a
:020000040000fa
:04034c008403000026
:020000040000fa
:040350008403000022
:020000040000fa
:04035400840300001e
:020000040000fa
:04035800840300001a
:020000040000fa
:04035c008403000016
:020000040000fa
:100400000f8120000edf20000e0188000000000098
:10041000000020000000e000020032000001200087
:100420002002880014000700b90007000000e00067
:1004300003003a00200b21000100200002003700d9
:100440000000200001002000810f70000100320038
:1004500014000700000020000000e000020032004d
:1004600000000200000000009010020000000000e8
:100470000040da000000fe004440a900a007200070
:100480000000e0000300320000002000a00188000e
:100490004440a800000006008a1f78008b1f7800e7
:1004a0000000060091018800800478000000eb0045
:1004b0001a003700e284440032a0b4009905ba0063
:1004c000e284440032a0b4009906ba00e2844400f9
:1004d00032a0b4000006eb00476fde00fd07b2005b
:1004e000636ce10003003a00ebff07000000eb0043
:1004f0000a003700606ce10004003a00005deb0088
:100500008b05e900fdff3e00040037006168e10053
:10051000010032000086eb000b00070019c7ba008b
:100520001905ba000e04e00003003a000a00e000da
:10053000e0ff3a0000000600fe07b2009e018800be
:100540008a047800f5ff3700395dba008b05e900b1
:100550000c003200295dba008b05e900080032006a
:100560000c00e00003003a00e284440032a0b40032
:10057000f5ff370019ddba008b05e900faff3a00f4
:100580008904e800e184440032a0b40000000600c1
:1005900000000000000000003600f800809fbe0050
:1005a000829fbe00849fbe00869fbe000000fa00ae
:1005b00085a0a90010168000640060000000e00023
:1005c0000b003a0050168000700060000000e00050
:1005d0000700320010168000700060000000e0008c
:1005e0000300320000188000940507001d0037004a
:1005f00010168000700060000000e0000b003a0060
:1006000050168000700060000000e000070032001b
:1006100010168000640060000000e000030032005b
:1006200000188000990507000e0037005016800062
:10063000700060000000e0000a003a001016800020
:10064000700060000000e00006003200101680001c
:10065000640060000000e00002003200001880002a
:10066000ad0507000080fa004f03be004f02be0038
:100670004f01be004f00be003600f90000400600ea
:100680003600f800809fbe00829fbe00849fbe009f
:10069000869fbe000000fa008660a90024050700be
:1006a000000000000080fa004f03be004f02be00b1
:1006b0004f01be004f00be003600f90000400600aa
:1006c0000000fa0013e1a9008500a9000828ef0046
:1006d0000080fa00004006000000fa0084e0a90053
:1006e0000080fa00004006000000fa0087c0a90060
:1006f0000080fa00004006000000fa0087e0a90030
:100700000080fa00004006000040da000000fe0011
:100710000000050003f0a200889fbe008a9fbe0073
:100720008c1f7800560107005d0133006450e10022
:100730004f0032006420e1005200320003826c005e
:1007400007003b000905d0000306d000820f5400cb
:100750000c065d00020039000200320089017800b9
:10076000030678008582550004003d000003fd006b
:100770008103fd008502ea008b854200840f720030
:1007800002003b0060001000e08018006011b8001b
:100790000005eb007a28e1000a0039000600780025
:1007a000c75ddd00f707b200878075002d003700b8
:1007b000828171000a017800610560008180d100aa
:1007c0000080d3008502e900f9ff3b0006044000e9
:1007d0008784480002003b0060041400e0841c0091
:1007e0000988a300070032008a81710082817100ac
:1007f000610164008904d1000884d3008b05e800fe
:10080000170037000978a30013003a000b00e0003e
:10081000130034008b05e9000804440089844c006f
:100820000a4474000978a3000d003a000b00e000b0
:10083000070034008b05e9000804440089844c005b
:1008400001003a000b0020000978a300f7ff3200f6
:100850000001eb0002003700828171000a0178007c
:10086000cc0007000cf0a70001f0a0001501370034
:100870006420e10002003a00838f6c001501330010
:100880000801be000200be000e013700889fbe00b6
:100890008a9fbe008c1f7800f9000700000133001a
:1008a00003866c006450e1002e0032006420e100f9
:1008b000330032006150e1002f0032006120e1007e
:1008c0003100320085855500eb07b000090020009b
:1008d00008042000050037000804440089844c0007
:1008e0000a0031000603430087834b0000015300d8
:1008f00081815b00f8ff33000203be000800a00006
:100900000804440089844c00f6ff3900c639dd0034
:100910008301730001003200130020008904d1001c
:100920000884d3000998a300050032000800a7003e
:100930000300a0008904d1000884d3008b05e800df
:100940008904d1000884d3000001eb000281d200a9
:100950009000070001f0a1000cf0a70001f0a0003a
:10096000d80037006420e100da0032000801be0040
:100970000200be00f7ff37006120e100d500320021
:100980006000b800f3ff37000000200001f82700e6
:10099000f0ff37000001be00a40007000470a700ac
:1009a00003f0a1006509b100160032000d0035000a
:1009b0006828e10006003500f0ff2f00f1ff270056
:1009c0000300e00013003b000100280000000500c8
:1009d00000004000818048008502e900fcff3a00e9
:1009e00008003700f88f420002003c008000eb0056
:1009f000000005008100d1000080d3008502e800de
:100a0000fcff3a000300e00002003b006000100021
:100a1000e0801800000006000001be00830007000f
:100a20000470a70003f0a10003f8a30013003a002c
:100a30006509b10010003200090035006928e100a5
:100a40000200350001002800000005000000400001
:100a5000818048008502e900fcff3a0000000600a2
:100a6000f88f4200050035008100d1000080d300de
:100a70008502e800fcff3a00000006008000eb0061
:100a800000000500881f7800030478000300e000e0
:100a900007003d0060001000e080180060011900b0
:100aa000e081190002003b0001f02d000300370037
:100ab0000700070008f0a70001f0a0004f0478002d
:100ac000000006004f89de0082017800edff37004c
:100ad000889fbe008a9fbe000082700004027100e1
:100ae00004827100260032000004be000200be0035
:100af0006011b8006b092000950220000182cf0030
:100b00000a0039000541b1000082cf00070039001a
:100b10000541b1000982cf00040039000541b10050
:100b20000882cf00010039000541b10005425200a2
:100b3000120032000a003b008281710061016400f2
:100b40008100d1000080d3008984d3000884d300c1
:100b50008b05e8000442e800f7ff3a000700370081
:100b60000804440089844c0000004800818048004b
:100b70008b05e9000442e900f9ff3a00050007008f
:100b80004f05be004f04be00000006006011b80013
:100b9000cfff370081002000618055000b003d0031
:100ba0000b00200061fe2f000100e1001d00340059
:100bb00082817100610164008904d1000884d3003e
:100bc0000000e800faff3a007100200061006400b4
:100bd000030070000200600009003200610444005c
:100be000e0844c000988a500050032008b05e80070
:100bf0006808e10002003a008904d1000884d300ab
:100c0000f20f20000258e10005003d00c75ddd0045
:100c1000f907b2008980750008007800000006001e
:100c20000bf827008b00780000000500c70ade00e3
:100c3000f107b200f50fb20008003200e1cf420028
:100c4000020032000170a00024000500810f700036
:100c5000010032000408050044000500810f700007
:100c600002003a00140005008502e900000040007f
:100c700081c04800fcff3b000170a000240005007b
:100c80000004be00e9ff07000003be000405be002b
:100c90000200be00e5ff0700844f7500000006005b
:100ca0000200be006450e100050036006420e1004f
:100cb000020036000968a30001003a000800be00e7
:100cc0000160a0004f0678004f05be004f04be0033
:100cd00000000600f0ff2f00f1ff2700f9ff3700aa
:100ce000889fbe008a9fbe008c1f7800e4ff07002b
:100cf000ebff330003866c006450e10024003200f7
:100d00006420e100270032006150e100220032003f
:100d10006120e100210032008b854200eb07b10029
:100d20000134b800003ab8000804420089844a003f
:100d3000013ab8000030b8008880400009014a003c
:100d40000400330000004000818048000201490097
:100d50008b05e900c909dd00830170000100320044
:100d600013002000c814de004814dd004709de002f
:100d70001200b200c808de000884700085ff07007a
:100d800001f0a1000cf0a70001f0a000cdff37009a
:100d90006120e100cfff32000801be000200be006a
:100da000f7ff37006150e100fcff3a00c9ff370050
:100db0000c00fa00889fbe008a9fbe008c9fbe0078
:100dc000afff07000206be00840578000200be00e7
:100dd000020020004801070005003a008b02b30022
:100de000120020004401070001003a00f8856d0060
:100df0000c01be00c60007000800be009b003200c8
:100e00000b08a3009e003a000df0a7000be0a00025
:100e100009f0a7000bf0a00009f0a1000801be0036
:100e2000bb0007000bf0a6009500320001003c005b
:100e30000bd0a0008acf7500b20033006000b8006c
:100e40006250e10099003900a1003e000b28a30088
:100e5000a2003a000bf8a300060032000b58a300d2
:100e6000a70032000801be00a90007000800be006c
:100e7000940032000800be00b00007000004be006d
:100e8000050578000bf0a7000b30a6000bf0a100c1
:100e90005b079800324f200053f323003d01070009
:100ea00005003d000800be00120020003d010700c3
:100eb0000004be000a05e9004a0798006150b90025
:100ec00000ff0700008fbe000c01be0084ff07007a
:100ed000b0fe0700300798000100e00002003d006e
:100ee00060001000e0801800f2ff2700820f500021
:100ef000e08f580064003e000c00be00a5fe070015
:100f000020079800f2072000820f5000e08f580061
:100f100005003c0012f82f00f3ff2f00820f500055
:100f2000838f580009003d000a00e00003003200f2
:100f300001003c000201ea00020578006000b800f0
:100f4000200798003a079800190037003e009000eb
:100f50006100b900dbfe0700809fbe000c00be00f0
:100f60004109dd004811de007208b100e20007000f
:100f70000005be001e01be0059ff07004f01be0064
:100f8000e4fd0700809fbe000c00be000a01be0009
:100f9000e0fd07001e01be0051ff07004f01be002b
:100fa000ddfd07008221270013f323004cff07001b
:100fb0000005be002e0090006100b900c1fe0700d0
:100fc00001f0a2000c01be00d3fd07000006be0028
:100fd0000800be00150107000c01be0040ff07001d
:100fe0000a01be00ccfd0700809fbe004a0007003a
:100ff0002e0590000af0a7000a05ea000500370058
:101000000800be000801be0035ff07000004be0056
:101010000c00be000801be000a00a70030ff070058
:101020000006be000a05d100f5ff3a005e019000ff
:1010300002e0a600030037000001be0036000700f2
:1010400012fe07000004be004f00be00480007006b
:101050000801be0022ff07003e019000d1000700fa
:10106000de0590000bf0a70001f0a2004f06be00c5
:101070004f05be004f04be000080fa0000000600cd
:1010800025000700f9ff3700270007006000b800bf
:101090000bd0a7000bc0a0000be0a7000bc0a20064
:1010a0000bc0a70001f82700f0ff37000df8a300e0
:1010b000020032001e000700190007000bf8a30011
:1010c000eaff32000b30a70001f0a200e7ff370073
:1010d0000df8a300f9ff3a00f7ff37000801be0042
:1010e0000b000700e6ff320001003c000df0a200fb
:1010f0006000b8000df0a70009000700dbff370013
:101100000b000700f1ff2700f0ff2f00d7ff37008b
:10111000010007009f00370001f8230000000500d0
:1011200001f8270000000500200220000100370020
:101130001002200070408800000006000003be007e
:10114000bafe07006220e100020032000600be0085
:1011500005000500e507b100f107b20004f0230027
:101160008480700007f0a70001f0a00024000500b3
:10117000889fbe008a9fbe008c9fbe000004be00f8
:10118000aafe07000800be006420e10048003e00ff
:101190005500320072212700132b24007f00070026
:1011a00047003c000800be00c2ec2800e32c2c00e5
:1011b00078000700470035000800be0001f0a100dc
:1011c00002002000033823007200070043003500ae
:1011d0000800be00b2a32a0083fb2300c0fe070064
:1011e0000200200003f0230001f0a70003f0a0009c
:1011f00049fd0700e7fd07000005be0031fe0700be
:1012000001f0a2000006be000200280013f3230034
:10121000b3fe07000801be003ffd0700809fbe002f
:101220000c00be0032082800e3952b00acfe07003e
:101230004f01be0038fd07000006be000001be00e1
:10124000a7fe0700809fbe004241250083b823000f
:10125000a3fe07000200200003e823002efd070084
:101260000c01be009efe07000006be004f00be003f
:10127000f2f92b00c3d4230099fe070002002000de
:1012800003f0230024fd07000c01be0021fd070030
:101290000001be000c00be007cfd07000200200023
:1012a00003f023001cfd0700610145003d0007001d
:1012b0004f06be004f05be004f04be0000000600f2
:1012c00001f8270000002000220220007240880060
:1012d000f7ff37006000b800fbff370001f823007c
:1012e00000002000f2ff370009f8a300f0ff3200f1
:1012f0006000b800eeff3700889fbe008a9fbe00e6
:101300000003be0049fe0700850578008281520077
:10131000020020006220e10004003a00f307b1005f
:10132000040035007718e100040035000600be0017
:10133000140037006000b8000f003700f50f2000e0
:10134000faff2f008502d1000a85d3008301e9004e
:10135000fcff3b008184620000046500890f74007b
:10136000f2ff32008582ea000a85ea008184620089
:101370000004650007fe070007f0a70001f0a000c9
:101380000081eb000200e0004f05be004f04be00ec
:1013900000000600140020007b003700f4ff2f003f
:1013a000790037000003be0020fe07006220e10044
:1013b000020032000600be00000006008502410067
:1013c000e30f20000328e10005003c00a3fe2f00ee
:1013d0000328e10007003d00050020000100370060
:1013e000f50f200020022000704088006000b80047
:1013f00008003700130020008381520005003d00e3
:101400008100d1000080d3008301e800fcff3a0096
:1014100005002000c72add00f107b20085807000ba
:1014200007f0a70001f0a00000000600889fbe00a2
:101430008a9fbe008c9fbe0040ff07008504780095
:101440000005be006420e10049003e006220e1008a
:1014500003003200090035000bf8a30044003200fd
:101460000bf8a30008003200100220007040880032
:10147000f0ff2f00f1ff27003d00370001f82f009b
:10148000000020003a0037003d000700a1fc0700e3
:101490000006be000a00be00324f200053f32300b6
:1014a000beff0700060034000c00be003400070039
:1014b00098fc07000006be000a00be0002003700cc
:1014c0008904e9000c00be002d00070004fe07009f
:1014d0002b00070090fc07000001be000c00be00be
:1014e000eafc07000005be000001be00fcfd07008d
:1014f0000006be00a2f32300430d2c0086fc07006b
:10150000809fbe000c00be00d2e32700d3f02b006a
:10151000f3fd07004f01be00dcfc07000006be0023
:101520000a01be00eefd07000a01be007afc0700ba
:101530000006be006148b90062fd07000005be005c
:1015400032082800e3952b00e5fd07000c01be00e2
:1015500071fc07000006be000a00be000200280061
:1015600013f32300defd07000c01be006afc070038
:101570004f06be004f05be004f04be00000006002f
:1015800003f0230002000500889fbe008a9fbe0072
:10159000841f7800bafd07004f0078001100330067
:1015a000f0ff2f00838f6c0006003b0004056500f0
:1015b0000a00a7000800370009f0a600100020006c
:1015c00008003700820f5400838f5c00030039004d
:1015d0001000200001003e000000200009f0a700dc
:1015e0000000ea004f05be004f04be000000e0000e
:1015f0000000060080007800010178003104e0005e
:0c160000fdff3a00000051000000060051
:020000040000fa
:10160c000d5600004f4c0000544d00004554000096
:10161c0045520000205600006f6c00007461000001
:10162c0067650000203d000020000000560000000f
:10163c00202000002020000020200000202000009e
:10164c00202000002020000020200000202000008e
:10165c00202000002020000020200000202000007e
:10166c00202000002020000020200000202000006e
:10167c002020000020000000200d0000204f000062
:10168c00484d00004d45000054450000522000001c
:10169c00526500007369000073740000616e0000f5
:1016ac00636500003d0000003f000000200d0000bd
:1016bc0020500000554c0000534500004d450000e3
:1016cc005445000052200000467200006571000075
:1016dc003d000000487a00002c200000416d000005
:1016ec00706c00006974000075640000653d0000ba
:0416fc0000000000ea
:020000040000fa
:101700000000fa00c802a900c822a800cc02a80064
:101710008000200080118800113a8000000027001e
:101720008080600000002600808f500003003a0097
:10173000c0002000c011880010003700113a80005e
:10174000000027008080600000002500808f50008e
:1017500003003a00c0002000c011880007003700d5
:10176000113a800000002700008060000000e000c7
:1017700002003a0070062000c011880000002a0014
:101780009011880087e0a90091058000f0ff2800f3
:101790008080600000002300010070009005880038
:1017a00097e0a80087c0a90091058000f08f2f0066
:1017b0000080600000a0a0009005880097c0a900ec
:1017c00031e2a8003342a8000080fa0000000600c1
:1017d0000400fa00004f780011079800c8ff0700c6
:1017e0000b00370000000000911180000020200055
:1017f000008060000000e000fbff3a001e00fb00dc
:10180000a01188001e0090000000e9001007980059
:101810001e0090000000e000f2ff3a00000000000f
:101820009111800000102000008060000000e000a6
:10183000fbff320031e2a9000080fa000000060040
:101840000400fa00100798000040eb0010479800d1
:101850001100200000c2b300ddff070011002000ce
:1018600000c3b300daff07001100200080c7b300f7
:10187000d7ff070030c0b300004f780015003700d5
:101880001e00fb004200dd009e0090000008de000c
:10189000004078006f406000104798001e409000a4
:1018a000e94f5000040034001e4090007043b00027
:1018b00010479800030037001e4090000043b0001e
:1018c00010479800110020001e409000c0ff070044
:1018d0001e4fe9001e4078000004e000e8ff3d00d4
:1018e0001100200000c2b300b9ff07000000eb00a8
:1018f000100798000080fa00000006000600fa00b9
:1019000010079800210798000040eb00104798004e
:101910001100200000c2b300adff0700110020003d
:1019200000c3b300aaff07001100200080c7b30066
:10193000a7ff070070c0b300004f78001b003700fe
:101940001e00fb004201dd001e009000ae00900072
:10195000820178008301e900030033008100d10097
:101960000080d300fbff3700004078006f4060002c
:10197000104798001e409000e94f500004003400ca
:101980001e4090007043b0001047980003003700dd
:101990001e4090000043b000104798001100200046
:1019a0001e4090008aff07001e4fe9001e4078008d
:1019b0000004e000e2ff3d001100200000c2b3007f
:1019c00083ff07006000b800100798002107980007
:1019d0000080fa00000006000800fa00889fbe00a0
:1019e000300798000040eb00004f78001100200005
:1019f00000c2b30076ff07001e0037003e009000d3
:101a00008000eb0061fc07000004be001e80fb00ac
:101a100064001000cf80de002afc07000001be0039
:101a20000000200001122400e1fc07000001be00bc
:101a30000800be0095fb0700f7fb070010079800a1
:101a40001e019000d0cc2c000010b8004308de002e
:101a50006a00b9000000780000005100404798007b
:101a60004e4090000043b0001100200058ff0700d6
:101a70001e4fe8001e407800e44f5000dfff3600a4
:101a80001100200000c2b30051ff07004f04be0048
:101a90000080fa00000006000400fa001007980019
:101aa0000000eb00000f7800060037001e009000d9
:101ab0001e004000104078001100200044ff070085
:101ac0001e0fe8001e009000cafe07009e0f500087
:101ad000f6ff31000080fa00000006000000fa0066
:101ae0000080eb00601988006800a8006bc0a800a7
:101af0006820a800c042a800c082a800c882a80030
:101b00000080fa00000006000000fa006020a80033
:101b10006000a80063c0a8009660a800ad80a8007f
:101b2000ada0a900adc0a9000080fa000000060029
:101b30000000fa009660a9009660a8000200370035
:101b40005000200021010700101680006400600092
:101b50000000e0000c003a005016800070006000a9
:101b60000000e0000a0032001016800070006000e3
:101b70000000e000f2ff3a0006003700b00020004d
:101b800012010700030037000000000001003700c9
:101b90000000000010168000700060000000e000ef
:101ba00015003a0050168000700060000000e00050
:101bb0001300320010168000640060000000e00096
:101bc000eeff3a000f003700c0002000ff000700c2
:101bd000404080000000e00004003a003b010700a4
:101be00010002000404088000600370000ea200076
:101bf0000000010003003700000000000100370072
:101c00000000000050168000700060000000e0003e
:101c100008003a0010168000700060000000e0002c
:101c20000400320010168000640060000000e00034
:101c3000e5ff3a000080fa00000006000400fa0008
:101c4000100798001e0090008000eb00cffb0700fb
:101c5000d2002000d3b4230021fc07006efb070054
:101c6000000f780060b028008bff07001e0078008e
:101c700059ff0700c0b1280087ff0700e0b1280026
:101c800085ff07000080fa00000006000800fa0047
:101c9000889fbe00300798003e0090008000eb0057
:101ca000bafb0700d2002000d3b423000cfc0700cd
:101cb000008fbe0002002000a34724001e00be00cb
:101cc00007fc07000004be001e01be00d0cc2c00a3
:101cd000c10424008ffa07000001be000800be0006
:101ce000eafa07004cfb07002007980020b4280000
:101cf00069ff07002e00900037ff0700a0b52800fd
:101d000065ff0700e0b1280063ff07004f04be0035
:101d10000080fa00000006000200fa00000f7800c0
:101d2000504080009e007800808f500002003600f6
:101d30009e007800514088000080fa0000000600f4
:101d40000400fa00889fbe00008020005001be0001
:101d50004000be004bfb07000004be0000088000ee
:101d60008000eb0089fb07000001be000800be00f8
:101d7000c6fa07000200200003082400c3fa070087
:101d800025fb0700000f7800504080008000eb002a
:101d90007efb0700d2002000d3b42300d0fb070055
:101da000fcfa070010079800c0b528003aff0700aa
:101db0001e00780008ff070000b7280036ff070064
:101dc0001e00900004ff0700c0b1280032ff07008a
:101dd0004f04be000080fa00000006000400fa0074
:101de000100798001e009000e80f500009003a000c
:101df0000040eb00004f780004802000002021000c
:101e0000a10720006011b800009abe000292be0037
:101e1000220037009e009000401f2000808f50005d
:101e200009003a0060c6b300004f7800048020002b
:101e300000122a00710020006011b800009abe0054
:101e40000292be00150037009e00900000022000a4
:101e5000808f500009003a0050c5b300004f780051
:101e60000480200000d02700010020006011b8008d
:101e7000009abe000292be000800370050c5b300b1
:101e8000004f78000480200000d0270001002000cf
:101e90006011b800009abe000292be0011028000dc
:101ea000000e20000100700010028800213a80001e
:101eb000f08f2f0000806000203a88001e01fb0098
:101ec00080072000a1092000337420008049780099
:101ed00081497800824978001200200060042000c7
:101ee0007105200023742000804978008149780022
:101ef000824978004207a80000000000103a8000e4
:101f0000610060000000e000fcff3a001102800068
:101f1000f0f12f0000806000100288000080fa00bd
:101f2000000006000000fa0021a3a90001198000aa
:101f3000f0cf2f0000806000001988000119800098
:101f4000000e200001007000001988002043a90045
:101f50002023a90011198000f0ff210000806000fb
:101f6000101988002343a9001119800030fc2f00ac
:101f7000008060001019880051058000f0f82f00e3
:101f8000808060000005200001007000500588007e
:101f900095a0a8002223a9002203a90025e3a900f7
:101fa00021198000f00f2e00008060000080a0004a
:101fb0002019880028e3a9000080eb006019880040
:101fc0003023ef000080fa00000006000200fa0053
:101fd000000f7800d3ff07001e007800e50f5000c7
:101fe00008003a002ca3a900c062a8004119800093
:101ff00000ff2f00008060005000b30040198800ef
:10200000150037001e007800eb0f500008003a0062
:102010002d63a900c9a2a8004119800000ff2f006c
:1020200000806000b000b300401988000a0037004b
:102030001e007800ec0f500007003a002d83a90025
:10204000c982a8004119800000ff2f0000806000b5
:10205000c000b3004019880021e3a8002023a80095
:102060000080fa00000006000400fa00000f78006b
:102070002147980011a1a9001061a9001021a90011
:1020800031058000f0ff28000080600000d0a00033
:102090003005880094e0a80084e0a9001e007800c4
:1020a0004400dd00600888000621ef0011e1a8006f
:1020b0002e409000e14f500001003a000140fe0028
:1020c00011e1a9000080fa00000006000000fa00fb
:1020d00013a1a90013e1a9001221a90012c1a800af
:1020e00091088000f0fc2f000080600090088800bc
:1020f0001061a9000a21ef000080eb007008880041
:10210000400580007000b300400588009500a800dd
:102110008500a90013e1a8000080fa000000060075
:102120000000fa006dfe070077fe070074fd07004f
:10213000401f200029ff0700c9e2a9004fa7a800ff
:102140004f87a900713a8000f00f2f008080600057
:102150000090200001007000703a88004fe7a8004e
:04216000ffff370046
:020000040000fa
:10216400080800000400000000000000000800004f
:1021740008000000000000000c080000020000003d
:10218400000000000e080000020000000000000033
:042194000000000047
:020000040000fa
:0200000401f009
:04000c0000000000f0
:020000040000fa
:0200000401f009
:040010005300000099
:00000001FF
